:060000000A128A110E280D
:10000800FE00030E83120313A4000A08A5000A12B7
:100018008A11C42D0A128A11112883120313D001E0
:10002800D101D201D301D401D501D601D701D8011C
:10003800D901DA01DB01DC01DD01DE0183010A12ED
:100048008A11262804300A128A1195240A128A1164
:100058000A128A1584260A128A110330831203139E
:10006800A6000030A7000A128A11BB270A128A11BB
:1000780003300A128A1182260A128A1180308312EA
:100088000313A6002530A7000A128A159E260A1215
:100098008A110A128A11FD240A128A110A128A1573
:1000A8004C260A128A11023083120313A900013068
:1000B8000A128A15B9260A128A1101300A128A15FB
:1000C800DB260A128A1183120313DE010030831221
:1000D8000313A600A7000A128A157C270A128A11A0
:1000E80083120313C201FF30C300C401F430C500FA
:1000F8000130C6005308A9005208A8005108A700FB
:100108005008A6000A128A11B4230A128A1183120F
:10011800031326080A128A1174270A128A118312F5
:1001280003134308D7004208D6000230AF0000305E
:10013800B0005708B2005608B1000A128A116125AA
:100148000A128A110A128A11DA260A128A118312ED
:100158000313DC00A901A90A02300A128A15B9267C
:100168000A128A11831203135C080A128A1553268D
:100178000A128A11023083120313A90002300A12EC
:100188008A15B9260A128A112E300A128A155326A0
:100198000A128A11013083120313AF000030B00035
:1001A8005708B2005608B1000A128A1161250A12CE
:1001B8008A110A128A11DA260A128A118312031383
:1001C800DB000330A90002300A128A15B9260A1288
:1001D8008A11831203135B080A128A1553260A121E
:1001E8008A11003083120313AF00B0005708B20021
:1001F8005608B1000A128A1161250A128A110A12D8
:100208008A11DA260A128A1183120313DA000430DB
:10021800A90002300A128A15B9260A128A11831215
:1002280003135A080A128A1553260A128A1105302E
:1002380083120313A90002300A128A15B9260A127A
:100248008A1156300A128A1553260A128A11013069
:1002580083120313A6000030A7000A128A157C2710
:100268000A128A1183120313C201FF30C300C401AA
:10027800F430C5000130C60058080A128A117427E4
:100288000A128A11831203134308D5004208D400C6
:100298000230AF000030B0005508B2005408B10079
:1002A8000A128A1161250A128A110A128A11DA269B
:1002B8000A128A1183120313DC000730A9000230E6
:1002C8000A128A15B9260A128A11831203135C08C6
:1002D8000A128A1553260A128A1108308312031348
:1002E800A90002300A128A15B9260A128A112E307C
:1002F8000A128A1553260A128A110130831203132F
:10030800AF000030B0005508B2005408B1000A121E
:100318008A1161250A128A110A128A11DA260A122A
:100328008A1183120313DB000930A90002300A1274
:100338008A15B9260A128A11831203135B080A1256
:100348008A1553260A128A11003083120313AF004C
:10035800B0005508B2005408B1000A128A1161258C
:100368000A128A110A128A11DA260A128A118312CB
:100378000313DA000A30A90002300A128A15B926D6
:100388000A128A11831203135A080A128A1553266D
:100398000A128A110B3083120313A90002300A12C1
:1003A8008A15B9260A128A1156300A128A15532656
:1003B8000A128A11023083120313AF000030B00012
:1003C8005E08CE00CF014E08B1004F08B2000A12F5
:1003D8008A1161250A128A110A128A11DA260A126A
:1003E8008A1183120313DC000D30A90002300A12AF
:1003F8008A15B9260A128A11831203135C080A1295
:100408008A1553260A128A11013083120313AF008A
:100418000030B0005E08CE00CF014E08B1004F0892
:10042800B2000A128A1161250A128A110A128A1167
:10043800DA260A128A1183120313DB000E30A90090
:1004480002300A128A15B9260A128A118312031376
:100458005B080A128A1553260A128A110030831281
:100468000313AF00B0005E08CE00CF014E08B10004
:100478004F08B2000A128A1161250A128A110A125B
:100488008A11DA260A128A1183120313DA000F304E
:10049800A90002300A128A15B9260A128A11831293
:1004A80003135A080A128A1553260A128A116A284F
:1004B8000A128A110E28F80078080319642A652A96
:1004C800792AF31F682A692A792A7009FA007109BA
:1004D800FB007209FC007309FD00FA0A0319FB0A04
:1004E8000319FC0A0319FD0A812A7308FD00720822
:1004F800FC007108FB007008FA00730872047104AC
:100508007004031D882A892A922A0030F3000030DB
:10051800F2000030F1000030F000162B9630F900A0
:10052800A22A0130F4007408F90701300310FD0C09
:10053800FC0CFB0CFA0CFF3E031D9A2AFE307D05CD
:10054800031DA72AA82A952AC42A0130F400740892
:10055800F9070130FA07003003180130FB070030B3
:1005680003180130FC07003003180130FD07013083
:100578000310FD0CFC0CFB0CFA0CFF3E031DBC2AFF
:10058800FF307D05031DC92ACA2AA92AD62A0130A7
:10059800F9020130F4000310FA0DFB0DFC0DFD0DFE
:1005A800F40BCF2AFC1BD92ADA2AE02A0230790276
:1005B8000318DF2AE02ACB2A7918E32AE42AEC2A4E
:1005C800FF30FA05FF30FB057F30FC05FF30FD05E5
:1005D8000310F90C7908F400F501F601F701183059
:1005E8000310F40DF50DF60DF70DFF3E031DF42A6B
:1005F8007408FA047508FB047608FC047708FD04FF
:1006080078080319082B092B0E2BF31F0C2B0D2B25
:100618000E2BFD177D08F3007C08F2007B08F10023
:100628007A08F000080083120313BD01B61F1D2BC2
:100638001E2B2B2BB309B409B509B609B30A031944
:10064800B40A0319B50A0319B60ABD01BD0ABA1FCF
:100658002E2B2F2B3E2BB709B809B909BA09B70AAF
:100668000319B80A0319B90A0319BA0A0130BB00F9
:100678003B08BD060030C1000030C0000030BF009C
:100688000030BE00360835043404330403194D2BFA
:100698004E2B9B2BBC01BC0A5E2B0130BB00031008
:1006A800B30DB40DB50DB60DBB0B532B0130BB000C
:1006B8003B08BC07B61F612B622B512B0130BB00D6
:1006C8000310BE0DBF0DC00DC10DBB0B642B36084A
:1006D8003A02031D792B35083902031D792B34089A
:1006E8003802031D792B33083702031C7C2B7D2B22
:1006F8008C2B3308B7023408031C340FB8023508B2
:10070800031C350FB9023608031C360FBA023E1413
:1007180001300310B60CB50CB40CB30CFF3E031D2E
:100728008D2B0130BC02031D9A2B9B2B622B3D089D
:1007380003199F2BA02BAB2BBE09BF09C009C10908
:10074800BE0A0319BF0A0319C00A0319C10A4108DE
:10075800B6004008B5003F08B4003E08B3000800E2
:10076800031083120313280D290DAF002F08031D52
:10077800BE2BBF2BC82B0030A9000030A8000030CA
:10078800A7000030A6002B2C2608AA002708AB00DB
:100798002808AC002908AD001F300310AD0CAC0CC4
:1007A800AB0CAA0CFF3E031DD12B2A08AE00A817DC
:1007B800FF30A605FF30A705FF30A8050030A905C2
:1007C8009630AF02AF1FE92BEA2B042C2F08803A92
:1007D800973E0318F02BF12BF22BBF2B013003109F
:1007E800A90CA80CA70CA60CFF3E031DF32B013087
:1007F800AA002A08AF07031D022C032CF22B1B2C7E
:1008080020302F02031C092C0A2C162CBF2B013078
:10081800AA000310A60DA70DA80DA90DAA0B0D2C53
:100828000130AF022F08031D1A2C1B2C0B2C2E088D
:1008380003191F2C202C2B2CA609A709A809A909E4
:10084800A60A0319A70A0319A80A0319A90A08007E
:1008580083120313AC01A71F322C332C3A2CA609A0
:10086800A709A60A0319A70AAC01AC0AA91F3D2CBF
:100878003E2C472CA809A909A80A0319A90A01307E
:10088800AA002A08AC06AD01AE0126082704031900
:100898004E2C4F2C862CAB01AB0A5D2C013003107B
:1008A800A60DA70DFF3E031D532C0130AA002A08F0
:1008B800AB07A71F602C612C522C01300310AD0D23
:1008C800AE0DFF3E031D622C27082902031D6E2C66
:1008D80026082802031C712C722C792C2608A802E1
:1008E8002708031CA903A9022D1401300310A70C23
:1008F800A60CFF3E031D7A2C0130AB02031D852C8C
:10090800862C612C2C0803198A2C8B2C902CAD0971
:10091800AE09AD0A0319AE0A2E08A7002D08A600D5
:10092800080083120313A60007302606031D9D2C1A
:100938009E2CA22C7030831603138F04063083126A
:100948002606031DA82CA92CAF2C831603130F0809
:100958008F3960388F00053083122606031DB52CA9
:10096800B62CBC2C831603130F088F3950388F0010
:10097800043083122606031DC22CC32CC92C8316EF
:1009880003130F088F3940388F000330831226066F
:10099800031DCF2CD02CD62C831603130F088F39A8
:1009A80030388F00023083122606031DDC2CDD2C24
:1009B800E32C831603130F088F3920388F00831216
:1009C8002603031DE82CE92CEF2C831603130F08CC
:1009D8008F3910388F0083122608031DF42CF52C4C
:1009E800F92C8F30831603138F05831603130F1406
:1009F800080000300A128A1504270A128A112430C6
:100A080083120313AA00B530A900A90B092DAA0B5C
:100A1800092D30300A128A156B260A128A11F9300C
:100A280083120313A900182DA90B172D1B2D303085
:100A38000A128A156B260A128A11222D232D00000C
:100A480030300A128A156B260A128A112B2D2C2D8A
:100A5800000038300A128A156B260A128A110330F0
:100A680083120313A900A90B372D000008300A12BE
:100A78008A156B260A128A11033083120313A90000
:100A8800A90B442D000001300A128A156B260A12A0
:100A98008A11033083120313A900A90B512D0000FA
:100AA80006300A128A156B260A128A110C300A12AD
:100AB8008A156B260A128A11080064308312031300
:100AC800A6000030A7003208A9003108A8000A12C1
:100AD8008A15BA270A128A11831203132608B50049
:100AE8006430A6000030A7003208A9003108A80029
:100AF8000A128A1540270A128A118312031326083C
:100B0800B7000A30A6000030A7003708B300B401C8
:100B18003308A8003408A9000A128A1127260A12E5
:100B28008A11831203132608B60002302F063004F8
:100B3800031D9F2DA02DA22D3508C32D2F03300492
:100B4800031DA72DA82DBC2D0A30A6000030A70034
:100B58003708B300B4013308A8003408A9000A1202
:100B68008A112C240A128A11831203132608C32D12
:100B78002F083004031DC12DC22DC32D36080800CF
:100B88000C1FC72DC82D002E1F0CA000200C0F39DC
:100B9800003A031DD02DD12DEF2D1E08A000A10174
:100BA800A201A3012308F3002208F2002108F100A2
:100BB8002008F00000300A128A115F220A128A11F6
:100BC800730883120313D3007208D2007108D1008E
:100BD8007008D000FF2D1F0CA000200C0F39013A1F
:100BE800031DF72DF82DFF2D1E08A000A1012008D8
:100BF800D8002108D9000C138C1E032E042E202E99
:100C08000A128A11FB270A128A1183120313DD00C4
:100C18002B305D06031D112E122E162E5E08013E86
:100C2800DE001F2E2D305D06031D1B2E1C2E1F2ED1
:100C38005E08FF3EDE008C1225088A00240E830021
:100C4800FE0E7E0E090083120313AC01A91F2D2E80
:100C58002E2E352EA809A909A80A0319A90AAC013C
:100C6800AC0AA71F382E392E3E2EA609A709A60AB8
:100C78000319A70A260827040319432E442E732EA6
:100C8800AB01AB0A522E01300310A60DA70DFF3E93
:100C9800031D482E0130AA002A08AB07A71F552EAE
:100CA800562E472E27082902031D5C2E26082802E7
:100CB800031C5F2E602E662E2608A8022708031C38
:100CC800A903A90201300310A70CA60CFF3E031DBF
:100CD800672E0130AB02031D722E732E562E2C0880
:100CE8000319772E782E7D2EA809A909A80A0319B9
:100CF800A90A2908A7002808A600080083120313D8
:100D0800A6002608031D892E8A2E922E8316031705
:100D180087118316031318111812D72E2603031DE3
:100D2800962E972E9F2E831603178711831603136B
:100D380018151812D72E02302606031DA42EA52E2C
:100D4800AD2E83160317871583160313181118126F
:100D5800D72E03302606031DB22EB32EBB2E8316C4
:100D6800031787158316031318151812D72E043086
:100D78002606031DC02EC12EC92E83160317871100
:100D88008316031318151816D72E05302606031DCB
:100D9800CE2ECF2ED72E831603178715831603134F
:100DA80018111816D72E83129817080083120313E8
:100DB800A6002608031DE12EE22EE42E30302B2F4C
:100DC8002603031DE82EE92EEB2E31302B2F02309F
:100DD8002606031DF02EF12EF32E32302B2F033072
:100DE8002606031DF82EF92EFB2E33302B2F043048
:100DF8002606031D002F012F032F34302B2F05301B
:100E08002606031D082F092F0B2F35302B2F0630F0
:100E18002606031D102F112F132F36302B2F0730C6
:100E28002606031D182F192F1B2F37302B2F08309C
:100E38002606031D202F212F232F38302B2F093072
:100E48002606031D282F292F2B2F39302B2F08007A
:100E5800003083120313B2000030B1000030B0003C
:100E68000030AF00261C392F3A2F512F2A08AF0720
:100E78002B0803110318013E0319432FB0072C0850
:100E880003110318013E03194A2FB1072D08031156
:100E98000318013E0319512FB2070130AE000310A9
:100EA800AA0DAB0DAC0DAD0DAE0B532F01300310D9
:100EB800A90CA80CA70CA60CFF3E031D5B2F290844
:100EC800280427042604031D6A2F6B2F362F3208A7
:100ED800A9003108A8003008A7002F08A6000800BC
:100EE80083120313CD004308C700C801C901CA0112
:100EF8004A08B6004908B5004808B4004708B300D6
:100F080044084502A6004608031C4603A700A8019A
:100F1800A90142084D02AA00AB01031CAB03AC01B6
:100F2800AB1BAC032C08AD000A128A112C270A123D
:100F38008A11831203132908BA002808B900270860
:100F4800B8002608B7000A128A1117230A128A1154
:100F58008312031344083307CB0000300318013011
:100F68003407CC004C08C3004B08C20008008312A9
:100F78000313261CC02FC12FC82F05108316031377
:100F8800051483160317081483120313A61CCD2F08
:100F9800CE2FD52F851083160313851483160317B8
:100FA800881483120313261DDA2FDB2FE22F051175
:100FB8008316031305158316031708150B178316D5
:100FC80003130C17831203130C139F131F17831695
:100FD80003139F121F129F13831203131F1407304A
:100FE80083120313A800A80BF72F00000800831230
:060FF80003131A080800B3
:1010000008308A000408840A8207003453343134DB
:101010003A34203420342034533432343A342034B7
:0C10200020342034533433343A3400348C
:101C980001300A128A156B260A128A150800831267
:101CA8000313A800061428080A128A1504270A1222
:101CB8008A15831203138614023083120313A700B4
:101CC800A70B642E000083120313861008008312EA
:101CD8000313A800061028080A128A1504270A12F6
:101CE8008A15831203138614C73083120313A700BF
:101CF8007D2EA70B7C2E802E8312031386100800DE
:101D0800C030831603138600C03083120313860085
:101D18008B1783160317890183160313880183120F
:101D2800031388018030831603138700831203137B
:101D38008701080080308312031326062530031913
:101D48002706031DA82EA92EAE2E193083160313BD
:101D580099009A0183121816831603138C1683129E
:101D680003138C120B178B17080083120313AA0096
:101D78002A03031DC02EC12ECB2E29087F3EAB009F
:101D88002B080A128A156B260A128A15DA2E0230D7
:101D98002A06031DD02ED12EDA2E2908BF3EAB000D
:101DA8002B080A128A156B260A128A150800831254
:101DB8000313AB00A901AA01F62E29082B078400FA
:101DC8000A128A1500200A128A150A128A15532641
:101DD8000A128A15013083120313A9070318AA0AE5
:101DE8000030AA0729082B0784000A128A15002048
:101DF8000A128A15003A031D022F032FE12E08004C
:101E080083120313A600261C0A2F0B2F0D2F08146C
:101E18000E2F0810A61C112F122F142F8814152FFF
:101E28008810261D182F192F1B2F08151C2F081175
:101E3800A61D1F2F202F222F8815232F8811261E1D
:101E4800262F272F292F08162A2F0812A61E2D2FD6
:101E58002E2F302F8816312F8812261F342F352F1A
:101E6800372F0817382F0813A61F3B2F3C2F3E2F5C
:101E780088173F2F881308008312031326082704A6
:101E88000319472F482F772FAB01AB0A562F013084
:101E98000310A60DA70DFF3E031D4C2F0130AA000D
:101EA8002A08AB07A71F592F5A2F4B2F270829029B
:101EB800031D602F26082802031C632F642F6A2F36
:101EC8002608A8022708031CA903A9020130031049
:101ED800A70CA60CFF3E031D6B2F0130AB02031DA0
:101EE800762F772F5A2F2908A7002808A600080060
:101EF8008312031326082704031D832F842F902F92
:101F0800C3309F05073083120313A800A80B8A2F3C
:101F18000000831203139F1426032704031D952F23
:101F2800962FA42F1F08C33904389F000730831247
:101F38000313A800A80B9E2F0000831203139F14FD
:101F4800023026062704031DAA2FAB2FB92F1F081E
:101F5800C33908389F00073083120313A800A80B61
:101F6800B32F0000831203139F1408008312031376
:101F7800AB01AC01260827040319C32FC42FFB2F7C
:101F8800AD01AD0AD22F01300310A60DA70DFF3EFB
:101F9800031DC82F0130AA002A08AD07A71FD52F97
:101FA800D62FC72F01300310AB0DAC0DFF3E031D1C
:101FB800D72F27082902031DE32F26082802031C10
:101FC800E62FE72FEE2F2608A8022708031CA903EF
:101FD800A9022B1401300310A70CA60CFF3E031D09
:101FE800EF2F0130AD02031DFA2FFB2FD62F2C083F
:081FF800A7002B08A600080059
:08400000FF3FFF3FFF3FFF3FC0
:04400E00D420FF3F7C
:00000001FF
