:060000000A128A110E280D
:10000800FE00030E83120313A4000A08A5000A12B7
:100018008A119A2D0A128A11112883120313CE010C
:10002800CF01D001D101D201D301D401D501D6012C
:10003800D701D801D901DA01DB01DC0183010A12F9
:100048008A11262806300A128A1174240A128A1183
:100058000A128A1583270A128A110330831203139E
:10006800A6000030A7000A128A1119270A128A115D
:100078000A128A119B230A128A110A128A15482722
:100088000A128A11023083120313AA0001300A12DD
:100098008A15A2270A128A1101300A128A11D32757
:1000A8000A128A11003083120313A600A7000A124D
:1000B8008A1159270A128A1183120313C201FF30C9
:1000C800C300C401F430C5000130C6005108A900BE
:1000D8005008A8004F08A7004E08A6000A128A1167
:1000E80023230A128A118312031326080A128A117B
:1000F8008C260A128A11831203134308D700420878
:10010800D6000230AF000030B0005708B2005608E1
:10011800B1000A128A11DC240A128A110A128A1101
:10012800F2250A128A1183120313DC00AA01AA0A13
:1001380002300A128A15A2270A128A11831203139F
:100148005C080A128A154F270A128A110230831294
:100158000313AA0002300A128A15A2270A128A116A
:100168002E300A128A154F270A128A11013083127B
:100178000313AF000030B0005708B2005608B100B2
:100188000A128A11DC240A128A110A128A11F2252B
:100198000A128A1183120313DB000330AA0002300B
:1001A8000A128A15A2270A128A11831203135B08FE
:1001B8000A128A154F270A128A1100308312031374
:1001C800AF00B0005708B2005608B1000A128A11F1
:1001D800DC240A128A110A128A11F2250A128A11DB
:1001E80083120313DA000430AA0002300A128A15B7
:1001F800A2270A128A11831203135A080A128A15AF
:100208004F270A128A11053083120313AA000230FD
:100218000A128A15A2270A128A1156300A128A155A
:100228004F270A128A11013083120313A6000030E7
:10023800A7000A128A1159270A128A118312031376
:10024800C201FF30C300C401F430C5000130C6004C
:1002580058080A128A118C260A128A11831203136B
:100268004308D5004208D4000230AF000030B00087
:100278005508B2005408B1000A128A11DC240A1287
:100288008A110A128A11F2250A128A11831203139B
:10029800DC000730AA0002300A128A15A2270A12C7
:1002A8008A11831203135C080A128A154F270A124F
:1002B8008A11083083120313AA0002300A128A1521
:1002C800A2270A128A112E300A128A154F270A12FB
:1002D8008A11013083120313AF000030B0005508B3
:1002E800B2005408B1000A128A11DC240A128A11D9
:1002F8000A128A11F2250A128A1183120313DB00EB
:100308000930AA0002300A128A15A2270A128A1195
:10031800831203135B080A128A154F270A128A11DF
:10032800003083120313AF00B0005508B200540820
:10033800B1000A128A11DC240A128A110A128A11DF
:10034800F2250A128A1183120313DA000A30AA006E
:1003580002300A128A15A2270A128A11831203137D
:100368005A080A128A154F270A128A110B3083126B
:100378000313AA0002300A128A15A2270A128A1148
:1003880056300A128A154F270A128A1156280A125D
:100398008A110E28F80078080319D329D429E829E6
:1003A800F31FD729D829E8297009FA007109FB0039
:1003B8007209FC007309FD00FA0A0319FB0A031904
:1003C800FC0A0319FD0AF0297308FD007208FC00F5
:1003D8007108FB007008FA00730872047104700455
:1003E800031DF729F829012A0030F3000030F20034
:1003F8000030F1000030F000852A9630F900112A0B
:100408000130F4007408F90701300310FD0CFC0CEE
:10041800FB0CFA0CFF3E031D092AFE307D05031D67
:10042800162A172A042A332A0130F4007408F90717
:100438000130FA07003003180130FB0700300318B9
:100448000130FC07003003180130FD0701300310AC
:10045800FD0CFC0CFB0CFA0CFF3E031D2B2AFF3095
:100468007D05031D382A392A182A452A0130F90240
:100478000130F4000310FA0DFB0DFC0DFD0DF40B1B
:100488003E2AFC1B482A492A4F2A023079020318BF
:100498004E2A4F2A3A2A7918522A532A5B2AFF30C1
:1004A800FA05FF30FB057F30FC05FF30FD05031022
:1004B800F90C7908F400F501F601F701183003107A
:1004C800F40DF50DF60DF70DFF3E031D632A7408B4
:1004D800FA047508FB047608FC047708FD0478081C
:1004E8000319772A782A7D2AF31F7B2A7C2A7D2AFA
:1004F800FD177D08F3007C08F2007B08F1007A08FC
:10050800F000080083120313BD01B61F8C2A8D2A40
:100518009A2AB309B409B509B609B30A0319B40A82
:100528000319B50A0319B60ABD01BD0ABA1F9D2AE7
:100538009E2AAD2AB709B809B909BA09B70A031931
:10054800B80A0319B90A0319BA0A0130BB003B08F3
:10055800BD060030C1000030C0000030BF000030D0
:10056800BE0036083504340433040319BC2ABD2AF6
:100578000A2BBC01BC0ACD2A0130BB000310B30D05
:10058800B40DB50DB60DBB0BC22A0130BB003B083C
:10059800BC07B61FD02AD12AC02A0130BB000310DD
:1005A800BE0DBF0DC00DC10DBB0BD32A36083A02D4
:1005B800031DE82A35083902031DE82A34083802E1
:1005C800031DE82A33083702031CEB2AEC2AFB2A0E
:1005D8003308B7023408031C340FB8023508031C6B
:1005E800350FB9023608031C360FBA023E14013023
:1005F8000310B60CB50CB40CB30CFF3E031DFC2A5B
:100608000130BC02031D092B0A2BD12A3D0803190E
:100618000E2B0F2B1A2BBE09BF09C009C109BE0A30
:100628000319BF0A0319C00A0319C10A4108B60011
:100638004008B5003F08B4003E08B30008000310A6
:1006480083120313280D290DAF002F08031D2D2B2E
:100658002E2B372B0030A9000030A8000030A7004F
:100668000030A6009A2B2608AA002708AB00280805
:10067800AC002908AD001F300310AD0CAC0CAB0C5E
:10068800AA0CFF3E031D402B2A08AE00A817FF3016
:10069800A605FF30A705FF30A8050030A90596304C
:1006A800AF02AF1F582B592B732B2F08803A973E58
:1006B80003185F2B602B612B2E2B01300310A90C24
:1006C800A80CA70CA60CFF3E031D622B0130AA0044
:1006D8002A08AF07031D712B722B612B8A2B203040
:1006E8002F02031C782B792B852B2E2B0130AA0087
:1006F8000310A60DA70DA80DA90DAA0B7C2B013080
:10070800AF022F08031D892B8A2B7A2B2E08031979
:100718008E2B8F2B9A2BA609A709A809A909A60A27
:100728000319A70A0319A80A0319A90A080000301F
:100738000A128A15C4270A128A118F3083120313EA
:10074800AB00D930AA00AA0BA72BAB0BA72BAC2B5D
:1007580030300A128A1567270A128A110730831265
:100768000313AB007C30AA00AA0BB82BAB0BB82B39
:10077800000030300A128A1567270A128A110530DC
:1007880083120313AA00AA0BC72BCA2B30300A12F4
:100798008A1567270A128A11053083120313AA00E3
:1007A800AA0BD42BD72B38300A128A1567270A12BE
:1007B8008A11113083120313AA00AA0BE12B00003F
:1007C80008300A128A1567270A128A111130831213
:1007D8000313AA00AA0BEE2B000001300A128A1597
:1007E80067270A128A11113083120313AA00AA0B71
:1007F800FB2B000006300A128A1567270A128A1195
:100808000C300A128A1567270A128A110800831207
:100818000313AC01A71F112C122C192CA609A70928
:10082800A60A0319A70AAC01AC0AA91F1C2C1D2C87
:10083800262CA809A909A80A0319A90A0130AA009F
:100848002A08AC06AD01AE012608270403192D2C91
:100858002E2C652CAB01AB0A3C2C01300310A60DE5
:10086800A70DFF3E031D322C0130AA002A08AB0752
:10087800A71F3F2C402C312C01300310AD0DAE0DBD
:10088800FF3E031D412C27082902031D4D2C260875
:100898002802031C502C512C582C2608A802270883
:1008A800031CA903A9022D1401300310A70CA60CE0
:1008B800FF3E031D592C0130AB02031D642C652C2F
:1008C800402C2C080319692C6A2C6F2CAD09AE0931
:1008D800AD0A0319AE0A2E08A7002D08A6000800C5
:1008E80083120313A60007302606031D7C2C7D2CDB
:1008F800812C7030831603138F040630831226066A
:10090800031D872C882C8E2C831603130F088F3910
:1009180060388F00053083122606031D942C952C11
:100928009B2C831603130F088F3950388F0004301F
:1009380083122606031DA12CA22CA82C83160313B0
:100948000F088F3940388F00033083122606031DA5
:10095800AE2CAF2CB52C831603130F088F39303803
:100968008F00023083122606031DBB2CBC2CC22C20
:10097800831603130F088F3920388F00831226033C
:10098800031DC72CC82CCE2C831603130F088F39D0
:1009980010388F0083122608031DD32CD42CD82C92
:1009A8008F30831603138F05831603130F14080063
:1009B800643083120313A6000030A7003208A90090
:1009C8003108A8000A128A11D3260A128A11831242
:1009D80003132608B5006430A6000030A7003208CB
:1009E800A9003108A8000A128A1197270A128A1149
:1009F800831203132608B7000A30A6000030A700A8
:100A08003708B300B4013308A8003408A9000A1253
:100A18008A113F250A128A11831203132608B60089
:100A280002302F063004031D1A2D1B2D1D2D3508ED
:100A38003E2D2F033004031D222D232D372D0A3080
:100A4800A6000030A7003708B300B4013308A80097
:100A58003408A9000A128A110B240A128A11831277
:100A6800031326083E2D2F083004031D3C2D3D2D71
:100A78003E2D3608080083120313AC01A91F452D2B
:100A8800462D4D2DA809A909A80A0319A90AAC01E0
:100A9800AC0AA71F502D512D562DA609A709A60A45
:100AA8000319A70A2608270403195B2D5C2D8B2D33
:100AB800AB01AB0A6A2D01300310A60DA70DFF3E4E
:100AC800031D602D0130AA002A08AB07A71F6D2D52
:100AD8006E2D5F2D27082902031D742D2608280274
:100AE800031C772D782D7E2D2608A8022708031CC5
:100AF800A903A90201300310A70CA60CFF3E031D91
:100B08007F2D0130AB02031D8A2D8B2D6E2D2C08F5
:100B180003198F2D902D952DA809A909A80A031945
:100B2800A90A2908A7002808A60008000B1C9D2D63
:100B38009E2DAF2D861BA12DA22DA62D0130D200F2
:100B48000030D300061BA92DAA2DAE2D0230D200ED
:100B58000030D3000B100C1FB22DB32DEB2D1F0C42
:100B6800A000200C0F39003A031DBB2DBC2DDA2D37
:100B78001E08A000A101A201A3012308F300220876
:100B8800F2002108F1002008F00000300A128A1152
:100B9800CE210A128A11730883120313D100720836
:100BA800D0007108CF007008CE00EA2D1F0CA000FD
:100BB800200C0F39013A031DE22DE32DEA2D1E0802
:100BC800A000A1012008D8002108D9000C1325088D
:100BD8008A00240E8300FE0E7E0E09008312031382
:100BE800A6002608031DF92DFA2DFC2D3030432EC2
:100BF8002603031D002E012E032E3130432E023012
:100C08002606031D082E092E0B2E3230432E0330E4
:100C18002606031D102E112E132E3330432E0430BA
:100C28002606031D182E192E1B2E3430432E053090
:100C38002606031D202E212E232E3530432E063066
:100C48002606031D282E292E2B2E3630432E07303C
:100C58002606031D302E312E332E3730432E083012
:100C68002606031D382E392E3B2E3830432E0930E8
:100C78002606031D402E412E432E3930432E0800F0
:100C8800003083120313B2000030B1000030B0000E
:100C98000030AF00261C512E522E692E2A08AF07AD
:100CA8002B0803110318013E03195B2EB0072C080B
:100CB80003110318013E0319622EB1072D08031111
:100CC8000318013E0319692EB2070130AE00031064
:100CD800AA0DAB0DAC0DAD0DAE0B6B2E0130031094
:100CE800A90CA80CA70CA60CFF3E031D732E2908FF
:100CF800280427042604031D822E832E4E2E320834
:100D0800A9003108A8003008A7002F08A60008008D
:100D180083120313CD004308C700C801C901CA01E3
:100D28004A08B6004908B5004808B4004708B300A7
:100D380044084502A6004608031C4603A700A8016C
:100D4800A90142084D02AA00AB01031CAB03AC0188
:100D5800AB1BAC032C08AD000A128A1144260A12F8
:100D68008A11831203132908BA002808B900270832
:100D7800B8002608B7000A128A1186220A128A11B8
:100D88008312031344083307CB00003003180130E3
:100D98003407CC004C08C3004B08C200080083127B
:100DA8000313AB01AC01260827040319DC2EDD2E42
:100DB800142FAD01AD0AEB2E01300310A60DA70DBF
:100DC800FF3E031DE12E0130AA002A08AD07A71F28
:100DD800EE2EEF2EE02E01300310AB0DAC0DFF3ED2
:100DE800031DF02E27082902031DFC2E26082802C1
:100DF800031CFF2E002F072F2608A8022708031C14
:100E0800A903A9022B1401300310A70CA60CFF3E5E
:100E1800031D082F0130AD02031D132F142FEF2ED1
:100E28002C08A7002B08A600080083120313261C11
:100E38001E2F1F2F262F0510831603130514831644
:100E48000317081483120313A61C2B2F2C2F332FE0
:100E580085108316031385148316031788148312C9
:100E68000313261D382F392F402F0511831603131E
:100E780005158316031708150B17831603130C178C
:100E8800831203130C139F131F17831603139F1248
:100E98001F129F13831203131F142030831203138E
:100EA800A800A80B552F000008008312031326087A
:100EB8002704031D602F612F6D2FC3309F0520303D
:100EC80083120313A800A80B672F000083120313D3
:100ED8009F1426032704031D722F732F812F1F08C9
:100EE800C33904389F00203083120313A800A80BCD
:100EF8007B2F0000831203139F1402302606270459
:100F0800031D872F882F962F1F08C33908389F0085
:100F1800203083120313A800A80B902F000083121F
:100F280003139F14080083120313260827040319C8
:100F38009E2F9F2FCE2FAB01AB0AAD2F0130031090
:100F4800A60DA70DFF3E031DA32F0130AA002A08F6
:100F5800AB07A71FB02FB12FA22F27082902031D07
:100F6800B72F26082802031CBA2FBB2FC12F26082B
:100F7800A8022708031CA903A90201300310A70C23
:100F8800A60CFF3E031DC22F0130AB02031DCD2F5F
:100F9800CE2FB12F2908A7002808A6000800831221
:100FA8000313AB00A901AA01EE2F29082B0784001F
:100FB8000A128A1500200A128A110A128A154F2766
:100FC8000A128A11013083120313A9070318AA0A07
:100FD8000030AA0729082B0784000A128A15002066
:100FE8000A128A11003A031DFA2FFB2FD92F080085
:1010000008308A000408840A8207003453343134DB
:101010003A34203420342034533432343A342034B7
:0A1020002034533433343A340034E2
:101E900001300A128A1567270A128A150800831270
:101EA0000313A800871428080A128A15C4270A12E7
:101EB0008A158312031307140C3083120313A7002F
:101EC000A70B602F00008312031307100800831272
:101ED0000313A900871029080A128A15C4270A12B9
:101EE0008A15831203130714063083120313A80004
:101EF0002F30A700A70B7A2FA80B7A2F7F2F8312E2
:101F0000031307100800C030831603138600C03087
:101F10008312031386008B178B150B10C0308316AA
:101F200003139600C03095008113880183120313B8
:101F300088018316031307108710831203130710F9
:101F40008710080083120313AB002B03031DA92F76
:101F5000AA2FB42F2A087F3EAC002C080A128A153B
:101F600067270A128A15C32F02302B06031DB92FCB
:101F7000BA2FC32F2A08BF3EAC002C080A128A15BC
:101F800067270A128A15080083120313A600261C6D
:101F9000CA2FCB2FCD2F0814CE2F0810A61CD12F5F
:101FA000D22FD42F8814D52F8810261DD82FD92FA3
:101FB000DB2F0815DC2F0811A61DDF2FE02FE22FE5
:101FC0008815E32F8811261EE62FE72FE92F081624
:101FD000EA2F0812A61EED2FEE2FF02F8816F12FF4
:101FE0008812261FF42FF52FF72F0817F82F081344
:101FF000A61FFB2FFC2FFE2F8817FF2F881308002A
:08400000FF3FFF3FFF3FFF3FC0
:04400E00D420FF3F7C
:00000001FF
