:060000000A128A110E280D
:10000800FE00030E83120313A4000A08A5000A12B7
:100018008A118D2D0A128A11112883120313CE0119
:10002800CF01D001D101D201D301D401D501D6012C
:10003800D701D801D901DA01DB01DC0183010A12F9
:100048008A11262806300A128A1104240A128A11F3
:100058000A128A154E270A128A11033083120313D3
:10006800A6000030A7000A128A1158270A128A111E
:100078000A128A11CF240A128A110A128A15252710
:100088000A128A11023083120313AA0001300A12DD
:100098008A1137260A128A1101300A128A11D627C4
:1000A8000A128A11003083120313A600A7000A124D
:1000B8008A1198270A128A1183120313C201FF308A
:1000C800C300C401F430C5000130C6005108A900BE
:1000D8005008A8004F08A7004E08A6000A128A1167
:1000E80023230A128A118312031326080A128A117B
:1000F800CB260A128A11831203134308D700420839
:10010800D6000230AF000030B0005708B2005608E1
:10011800B1000A128A116C240A128A110A128A1171
:10012800E5250A128A1183120313DC00AA01AA0A20
:1001380002300A128A1137260A128A11831203130F
:100148005C080A128A158B270A128A110230831258
:100158000313AA0002300A128A1137260A128A11DA
:100168002E300A128A158B270A128A11013083123F
:100178000313AF000030B0005708B2005608B100B2
:100188000A128A116C240A128A110A128A11E525A8
:100198000A128A1183120313DB000330AA0002300B
:1001A8000A128A1137260A128A11831203135B086E
:1001B8000A128A158B270A128A1100308312031338
:1001C800AF00B0005708B2005608B1000A128A11F1
:1001D8006C240A128A110A128A11E5250A128A1158
:1001E80083120313DA000430AA0002300A128A11BB
:1001F80037260A128A11831203135A080A128A151B
:100208008B270A128A11053083120313AA000230C1
:100218000A128A1137260A128A1156300A128A15CA
:100228008B270A128A11013083120313A6000030AB
:10023800A7000A128A1198270A128A118312031337
:10024800C201FF30C300C401F430C5000130C6004C
:1002580058080A128A11CB260A128A11831203132C
:100268004308D5004208D4000230AF000030B00087
:100278005508B2005408B1000A128A116C240A12F7
:100288008A110A128A11E5250A128A1183120313A8
:10029800DC000730AA0002300A128A1137260A1237
:1002A8008A11831203135C080A128A158B270A1213
:1002B8008A11083083120313AA0002300A128A1125
:1002C80037260A128A112E300A128A158B270A122B
:1002D8008A11013083120313AF000030B0005508B3
:1002E800B2005408B1000A128A116C240A128A1149
:1002F8000A128A11E5250A128A1183120313DB00F8
:100308000930AA0002300A128A1137260A128A1105
:10031800831203135B080A128A158B270A128A11A3
:10032800003083120313AF00B0005508B200540820
:10033800B1000A128A116C240A128A110A128A114F
:10034800E5250A128A1183120313DA000A30AA007B
:1003580002300A128A1137260A128A1183120313ED
:100368005A080A128A158B270A128A110B3083122F
:100378000313AA0002300A128A1137260A128A11B8
:1003880056300A128A158B270A128A1156280A1221
:100398008A110E28F80078080319D329D429E829E6
:1003A800F31FD729D829E8297009FA007109FB0039
:1003B8007209FC007309FD00FA0A0319FB0A031904
:1003C800FC0A0319FD0AF0297308FD007208FC00F5
:1003D8007108FB007008FA00730872047104700455
:1003E800031DF729F829012A0030F3000030F20034
:1003F8000030F1000030F000852A9630F900112A0B
:100408000130F4007408F90701300310FD0CFC0CEE
:10041800FB0CFA0CFF3E031D092AFE307D05031D67
:10042800162A172A042A332A0130F4007408F90717
:100438000130FA07003003180130FB0700300318B9
:100448000130FC07003003180130FD0701300310AC
:10045800FD0CFC0CFB0CFA0CFF3E031D2B2AFF3095
:100468007D05031D382A392A182A452A0130F90240
:100478000130F4000310FA0DFB0DFC0DFD0DF40B1B
:100488003E2AFC1B482A492A4F2A023079020318BF
:100498004E2A4F2A3A2A7918522A532A5B2AFF30C1
:1004A800FA05FF30FB057F30FC05FF30FD05031022
:1004B800F90C7908F400F501F601F701183003107A
:1004C800F40DF50DF60DF70DFF3E031D632A7408B4
:1004D800FA047508FB047608FC047708FD0478081C
:1004E8000319772A782A7D2AF31F7B2A7C2A7D2AFA
:1004F800FD177D08F3007C08F2007B08F1007A08FC
:10050800F000080083120313BD01B61F8C2A8D2A40
:100518009A2AB309B409B509B609B30A0319B40A82
:100528000319B50A0319B60ABD01BD0ABA1F9D2AE7
:100538009E2AAD2AB709B809B909BA09B70A031931
:10054800B80A0319B90A0319BA0A0130BB003B08F3
:10055800BD060030C1000030C0000030BF000030D0
:10056800BE0036083504340433040319BC2ABD2AF6
:100578000A2BBC01BC0ACD2A0130BB000310B30D05
:10058800B40DB50DB60DBB0BC22A0130BB003B083C
:10059800BC07B61FD02AD12AC02A0130BB000310DD
:1005A800BE0DBF0DC00DC10DBB0BD32A36083A02D4
:1005B800031DE82A35083902031DE82A34083802E1
:1005C800031DE82A33083702031CEB2AEC2AFB2A0E
:1005D8003308B7023408031C340FB8023508031C6B
:1005E800350FB9023608031C360FBA023E14013023
:1005F8000310B60CB50CB40CB30CFF3E031DFC2A5B
:100608000130BC02031D092B0A2BD12A3D0803190E
:100618000E2B0F2B1A2BBE09BF09C009C109BE0A30
:100628000319BF0A0319C00A0319C10A4108B60011
:100638004008B5003F08B4003E08B30008000310A6
:1006480083120313280D290DAF002F08031D2D2B2E
:100658002E2B372B0030A9000030A8000030A7004F
:100668000030A6009A2B2608AA002708AB00280805
:10067800AC002908AD001F300310AD0CAC0CAB0C5E
:10068800AA0CFF3E031D402B2A08AE00A817FF3016
:10069800A605FF30A705FF30A8050030A90596304C
:1006A800AF02AF1F582B592B732B2F08803A973E58
:1006B80003185F2B602B612B2E2B01300310A90C24
:1006C800A80CA70CA60CFF3E031D622B0130AA0044
:1006D8002A08AF07031D712B722B612B8A2B203040
:1006E8002F02031C782B792B852B2E2B0130AA0087
:1006F8000310A60DA70DA80DA90DAA0B7C2B013080
:10070800AF022F08031D892B8A2B7A2B2E08031979
:100718008E2B8F2B9A2BA609A709A809A909A60A27
:100728000319A70A0319A80A0319A90A08008312BA
:100738000313AC01A71FA12BA22BA92BA609A7095C
:10074800A60A0319A70AAC01AC0AA91FAC2BAD2B4A
:10075800B62BA809A909A80A0319A90A0130AA00F1
:100768002A08AC06AD01AE01260827040319BD2BE3
:10077800BE2BF52BAB01AB0ACC2B01300310A60D19
:10078800A70DFF3E031DC22B0130AA002A08AB07A4
:10079800A71FCF2BD02BC12B01300310AD0DAE0DF1
:1007A800FF3E031DD12B27082902031DDD2B260838
:1007B8002802031CE02BE12BE82B2608A8022708B7
:1007C800031CA903A9022D1401300310A70CA60CC1
:1007D800FF3E031DE92B0130AB02031DF42BF52B63
:1007E800D02B2C080319F92BFA2BFF2BAD09AE09D6
:1007F800AD0A0319AE0A2E08A7002D08A6000800A6
:1008080083120313A60007302606031D0C2C0D2C9B
:10081800112C7030831603138F04063083122606BA
:10082800031D172C182C1E2C831603130F088F3941
:1008380060388F00053083122606031D242C252CD2
:100848002B2C831603130F088F3950388F00043070
:1008580083122606031D312C322C382C83160313E1
:100868000F088F3940388F00033083122606031D86
:100878003E2C3F2C452C831603130F088F39303834
:100888008F00023083122606031D4B2C4C2C522C51
:10089800831603130F088F3920388F00831226031D
:1008A800031D572C582C5E2C831603130F088F3901
:1008B80010388F0083122608031D632C642C682CC3
:1008C8008F30831603138F05831603130F14080044
:1008D800643083120313A6000030A7003208A90071
:1008E8003108A8000A128A1112270A128A118312E3
:1008F80003132608B5006430A6000030A7003208AC
:10090800A9003108A8000A128A15C4270A128A11F8
:10091800831203132608B7000A30A6000030A70088
:100928003708B300B4013308A8003408A9000A1234
:100938008A1132250A128A11831203132608B60077
:1009480002302F063004031DAA2CAB2CAD2C350821
:10095800CE2C2F033004031DB22CB32CC72C0A3025
:10096800A6000030A7003708B300B4013308A80078
:100978003408A9000A128A119B230A128A118312C9
:1009880003132608CE2C2F083004031DCC2CCD2CA5
:10099800CE2C3608080000300A128A156B270A1276
:1009A8008A111A3083120313AB00F730AA00AA0B7E
:1009B800DB2CAB0BDB2CE02C03300A128A15322718
:1009C8000A128A11073083120313AB007C30AA0085
:1009D800AA0BEC2CAB0BEC2C000003300A128A1586
:1009E80032270A128A110F3083120313AB004730E3
:1009F800AA00AA0BFD2CAB0BFD2C03300A128A159A
:100A080032270A128A1102300A128A1532270A126C
:100A18008A1102300A128A1532270A128A110830FE
:100A28000A128A1532270A128A1100300A128A1508
:100A380032270A128A110C300A128A1532270A1232
:100A48008A1100300A128A1532270A128A110630D2
:100A58000A128A1532270A128A1108008312031310
:100A6800AC01A91F382D392D402DA809A909A80ABC
:100A78000319A90AAC01AC0AA71F432D442D492D1F
:100A8800A609A709A60A0319A70A2608270403190D
:100A98004E2D4F2D7E2DAB01AB0A5D2D013003107D
:100AA800A60DA70DFF3E031D532D0130AA002A08ED
:100AB800AB07A71F602D612D522D27082902031DA2
:100AC800672D26082802031C6A2D6B2D712D260818
:100AD800A8022708031CA903A90201300310A70CC8
:100AE800A60CFF3E031D722D0130AB02031D7D2DA8
:100AF8007E2D612D2C080319822D832D882DA809A0
:100B0800A909A80A0319A90A2908A7002808A600FC
:100B180008000B1C902D912DA22D861B942D952D30
:100B2800992D0130D2000030D300061B9C2D9D2D3D
:100B3800A12D0230D2000030D3000B100C1FA52DC0
:100B4800A62DDE2D1F0CA000200C0F39003A031D26
:100B5800AE2DAF2DCD2D1E08A000A101A201A3012D
:100B68002308F3002208F2002108F1002008F00011
:100B780000300A128A11CE210A128A1173088312D0
:100B88000313D1007208D0007108CF007008CE009E
:100B9800DD2D1F0CA000200C0F39013A031DD52DA7
:100BA800D62DDD2D1E08A000A1012008D80021089F
:100BB800D9000C1325088A00240E8300FE0E7E0E31
:100BC800090083120313A6002608031DEC2DED2D42
:100BD800EF2D3030362E2603031DF32DF42DF62D80
:100BE8003130362E02302606031DFB2DFC2DFE2D3E
:100BF8003230362E03302606031D032E042E062E11
:100C08003330362E04302606031D0B2E0C2E0E2EE6
:100C18003430362E05302606031D132E142E162EBC
:100C28003530362E06302606031D1B2E1C2E1E2E92
:100C38003630362E07302606031D232E242E262E68
:100C48003730362E08302606031D2B2E2C2E2E2E3E
:100C58003830362E09302606031D332E342E362E14
:100C68003930362E080083120313AC002C03031D01
:100C78003E2E3F2E5E2E2A087F3EAF002F08AB0087
:100C880004300310AB0CFF3E031D452E2B08AD00AE
:100C98002F080F39AE002D080A128A1532270A12BA
:100CA8008A11831203132E080A128A1532270A1290
:100CB8008A11822E02302C06031D632E642E822E8A
:100CC8002A08BF3EAF002F08AB0004300310AB0C5E
:100CD800FF3E031D6A2E2B08AD002F080F39AE000A
:100CE8002D080A128A1532270A128A118312031351
:100CF8002E080A128A1532270A128A1108000030B3
:100D080083120313B2000030B1000030B00000308D
:100D1800AF00261C902E912EA82E2A08AF072B086C
:100D280003110318013E03199A2EB0072C0803116A
:100D38000318013E0319A12EB1072D08031103184A
:100D4800013E0319A82EB2070130AE000310AA0D08
:100D5800AB0DAC0DAD0DAE0BAA2E01300310A90CD6
:100D6800A80CA70CA60CFF3E031DB22E29082804C8
:100D780027042604031DC12EC22E8D2E3208A90079
:100D88003108A8003008A7002F08A6000800831221
:100D98000313CD004308C700C801C901CA014A08A6
:100DA800B6004908B5004808B4004708B30044082D
:100DB8004502A6004608031C4603A700A801A9018E
:100DC80042084D02AA00AB01031CAB03AC01AB1BEC
:100DD800AC032C08AD000A128A1183260A128A1164
:100DE800831203132908BA002808B9002708B80095
:100DF8002608B7000A128A1186220A128A1183125B
:100E0800031344083307CB000030031801303407BC
:100E1800CC004C08C3004B08C2000800831203131F
:100E2800AB01AC012608270403191B2F1C2F532FD5
:100E3800AD01AD0A2A2F01300310A60DA70DFF3E04
:100E4800031D202F0130AA002A08AD07A71F2D2F48
:100E58002E2F1F2F01300310AB0DAC0DFF3E031DCD
:100E68002F2F27082902031D3B2F26082802031CC1
:100E78003E2F3F2F462F2608A8022708031CA90348
:100E8800A9022B1401300310A70CA60CFF3E031D6A
:100E9800472F0130AD02031D522F532F2E2F2C0840
:100EA800A7002B08A600080083120313261C5D2F39
:100EB8005E2F652F05108316031305148316031779
:100EC800081483120313A61C6A2F6B2F722F851028
:100ED80083160313851483160317881483120313C8
:100EE800261D772F782F7F2F0511831603130515DD
:100EF8008316031708150B17831603130C17831291
:100F080003130C139F131F17831603139F121F122B
:100F18009F13831203131F14203083120313A80096
:100F2800A80B942F00000800831203132608270437
:100F3800031D9F2FA02FAC2FC3309F052030831295
:100F48000313A800A80BA62F0000831203139F14F5
:100F580026032704031DB12FB22FC02F1F08C33942
:100F680004389F00203083120313A800A80BBA2F5F
:100F78000000831203139F14023026062704031D62
:100F8800C62FC72FD52F1F08C33908389F00203018
:100F980083120313A800A80BCF2F0000831203139A
:100FA8009F14080083120313AD00AB01AC01F12FAD
:100FB8002B082D0784000A128A1500200A128A11AC
:100FC8000A128A158B270A128A1101308312031319
:100FD800AB070318AC0A0030AC072B082D078400B8
:100FE8000A128A1500200A128A11003A031DFD2FE1
:060FF800FE2FDC2F0800B3
:1010000008308A000408840A8207003453343134DB
:101010003A34203420342034533432343A342034B7
:0A1020002034533433343A340034E2
:101E4A0000300A128A1532270A128A1501300A123C
:101E5A008A1532270A128A15080083120313A90069
:101E6A00081129080A128A156B270A128A15831281
:101E7A0003138815063083120313A8002F30A70016
:101E8A00A70B452FA80B452F4A2F8312031388113E
:101E9A000800C030831603138600C0308312031370
:101EAA0086008B178B150B10C03083160313960010
:101EBA00C0309500811388018312031388018316A9
:101ECA000313870183120313870108008312031384
:101EDA00A600261C712F722F742F0816752F081250
:101EEA00A61C782F792F7B2F88167C2F8812261D07
:101EFA007F2F802F822F0817832F0813A61D862F66
:101F0A00872F892F88178A2F8813080083120313B3
:101F1A00AA002A080F39A8002A08F039A9000815CA
:101F2A002908A70004300310A70CFF3E031D982FB1
:101F3A0027080A128A156B270A128A1583120313B5
:101F4A0088150C3083120313A700A70BAA2F0000D1
:101F5A0083120313881128080A128A156B270A129A
:101F6A008A158312031388150C3083120313A700F2
:101F7A00A70BBD2F000083120313881108008312D8
:101F8A000313260827040319CB2FCC2FFB2FAB01F1
:101F9A00AB0ADA2F01300310A60DA70DFF3E031D71
:101FAA00D02F0130AA002A08AB07A71FDD2FDE2F8A
:101FBA00CF2F27082902031DE42F26082802031C15
:101FCA00E72FE82FEE2F2608A8022708031CA903EB
:101FDA00A90201300310A70CA60CFF3E031DEF2F28
:101FEA000130AB02031DFA2FFB2FDE2F2908A700B1
:061FFA002808A600080003
:08400000FF3FFF3FFF3FFF3FC0
:04400E00D420FF3F7C
:00000001FF
